:020000040800F2
:100000000080002079100008690200086B020008D7
:100010006D0200086F020008710200080000000075
:100020000000000000000000000000007302000853
:10003000750200080000000077020008790200083D
:10004000C9100008C9100008C9100008C91000082C
:10005000C9100008C9100008C9100008C91000081C
:10006000C9100008C9100008C9100008C91000080C
:10007000C9100008C9100008C9100008C9100008FC
:10008000C9100008C9100008C9100008C9100008EC
:1000900000000000C9100008C9100008C9100008BD
:1000A000C9100008C9100008C9100008C9100008CC
:1000B000C9100008C9100008C9100008C9100008BC
:1000C000C9100008C9100008C9100008C9100008AC
:1000D000C9100008C9100008C9100008C91000089C
:1000E000C9100008C9100008C9100008C91000088C
:1000F000C91000080000000000000000C91000083E
:10010000C9100008C9100008C9100008C91000086B
:10011000C9100008C9100008C9100008C91000085B
:10012000C9100008C9100008C9100008C91000084B
:08013000C9100008C910000805
:1001380010B5054C237833B9044B13B10448AFF319
:1001480000800123237010BD100000200000000073
:100158002411000808B5034B1BB103490348AFF34A
:10016800008008BD000000001400002024110008D1
:1001780072B6FEE700B59BB04822002108A800F03F
:10018800C5FF0023029303930493059306930793F3
:1001980015490A6822F4C06242F480620A600A685B
:1001A80002F4C0620192019A202208920122109260
:1001B800119360221292139308A800F085F970B980
:1001C8004F23029300210391049105910691079111
:1001D80002A800F0B5FC20B91BB05DF804FBFFF7DE
:1001E800C7FFFFF7C5FF00BF0004005808B500F0BF
:1001F80001FFFFF7BFFF00F00BF84FF4FA7000F0B3
:1002080021FF41F210014FF0904000F066FEF4E744
:1002180010B586B0002401940294039404940594C4
:100228004FF0B043DA6C42F00102DA64DB6C03F0A1
:1002380001030093009B224641F210014FF09040C9
:1002480000F046FE41F21003019301230293039448
:10025800049401A94FF0904000F084FD06B010BD51
:10026800FEE7FEE7FEE7FEE7FEE7704770477047E8
:1002780008B500F0D5FE08BD70470000024A1368B3
:1002880043F480731360704700040058024B1868E9
:1002980000F4C060704700BF0004005870B588B013
:1002A80004460E46294B93E803000690ADF81C104F
:1002B800D96898680490ADF8141001AD103393E82C
:1002C800070085E80700B6F5007F1BD00023022B46
:1002D80022D808AA02EB430232F8102CA24215D207
:1002E8000133F4E70133022B0ED808AA02EB4302CC
:1002F80032F8082CA242F5D308AA02EB830353F87C
:100308001C5C0AE00023EEE7002506E008AA02EBE1
:10031800830353F81C5C00E000250D4A136823F0A2
:1003280007032B43136000F087FE0446084B1B6845
:1003380003F00703AB4206D000F07EFE001B022844
:10034800F4D9032000E0002008B070BD4011000877
:100358000040005810B5C0F303100C4B53F8204070
:100368004FF0B043D3F8083103F00F03084A52F8AE
:100378002300B4FBF0F4FFF789FF01460548A0FB12
:100388000430800CFFF78AFF10BD00BF9C110008E5
:100398005C11000883DE1B434FF0B0439A68DB68AA
:1003A80003F0030312F00C020AD00C2A06D0042A28
:1003B80047D0082A3BD00021084626E0012BF6D179
:1003C8004FF0B0431B6813F008030DD04FF0B04353
:1003D8001B6813F0080324D14FF0B041D1F89410F2
:1003E8002E4951F823100EE04FF0B041096811F082
:1003F800080F12D14FF0B043D3F89430C3F303235E
:10040800264951F82310D2B100204FF0B0439B6821
:1004180003F00C030C2B1AD070474FF0B041096859
:10042800EEE74FF0B0431B68C3F30313D8E74FF070
:10043800B043196811F4801106D11948E5E7084658
:10044800E3E700211748E0E700211648DDE74FF011
:10045800B043DB6803F00303022B09D0032B08D158
:100468004FF0B0431B6813F4801F15D10C4900E00E
:100478000C494FF0B042D068C0F3062000FB01F0F1
:10048800D368C3F302130133B0FBF3F0D3685B0FF7
:100498000133B0FBF3F0BFE70249EAE79C1100081B
:1004A8000048E8010024F40008B5FFF775FF4FF095
:1004B800B0439B68C3F30313024A52F82330B0FBDE
:1004C800F3F008BD5C110008002800F01883F8B5A7
:1004D80004464FF0B0439D6805F00C05DE6806F051
:1004E8000306036813F0200F00F08F80EDB10C2D88
:1004F80019D0236A002B00F0BC804FF0B04213687B
:1005080043F00103136000F097FD07464FF0B04336
:100518001B6813F0020F65D100F08EFDC01B022886
:10052800F4D90320F8E2012EE3D14FF0B0431B6861
:1005380013F0020F03D0236A002B00F0E282A06AB6
:100548004FF0B0431B6813F0080F29D04FF0B043A9
:100558001B6803F0F00398422AD9FFF7FBFE002836
:1005680040F0D1824FF0B0431A6842F008021A6096
:100578001A6822F0F002A16A0A431A60616A5A688E
:1005880022F47F4242EA01225A60FFF78DFFBC4BFA
:100598001860BC4B186800F005FD002835D0BBE298
:1005A8004FF0B043D3F894301B0903F0F003D2E7BF
:1005B8004FF0B0431A6842F008021A601A6822F035
:1005C800F002A16A0A431A60616A5A6822F47F42FB
:1005D80042EA01225A60A06AFFF7BCFE0028D4D084
:1005E800012099E24FF0B0431A6842F008021A60FD
:1005F8001A6822F0F002A16A0A431A60616A5A680E
:1006080022F47F4242EA01225A60236813F0010F64
:1006180051D0082D45D00C2D41D04FF0B042136871
:1006280023F48013A1680B4313606368B3F5803F1C
:1006380063D0B3F5041F65D04FF0B0431A6822F4B5
:1006480080321A601A6822F400121A606368002B5C
:1006580063D000F0F1FC07464FF0B0431B6813F479
:10066800003F28D100F0E8FCC01B6428F4D903201F
:1006780052E24FF0B042136823F00103136000F018
:10068800DBFC07464FF0B0431B6813F0020FBCD0E9
:1006980000F0D2FCC01B0228F4D903203CE2032E50
:1006A800BBD14FF0B0431B6813F4003F03D063681D
:1006B800002B00F02A82236813F0020F52D0042D79
:1006C8003DD00C2D39D02369002B00F091804FF0DC
:1006D800B042136843F48073136000F0ADFC064623
:1006E8004FF0B0431B6813F4806F77D100F0A4FC7F
:1006F800801B0228F4D903200EE2136843F48033E8
:100708001360A3E74FF0B0431A6842F400121A606E
:100718001A6842F480321A6098E700F08DFC0746A8
:100728004FF0B0431B6813F4003FC4D000F084FCC2
:10073800C01B6428F4D90320EEE1022EC3D14FF088
:10074800B0431B6813F4806F03D02369002B00F0BB
:10075800DE8161694FF0B042536823F0FE4343EAFB
:1007680001635360236813F0080F00F08D80A369BC
:10077800002B6CD04FF0B043D3F89430E16903F00C
:100788001002914211D003F00302022A00F0C18145
:1007980013F0010F42D14FF0B042D2F8943023F059
:1007A8001003E1690B43C2F894304FF0B042D2F81D
:1007B800943043F00103C2F8943000F03DFC064643
:1007C8004FF0B043D3F8943013F0020F5CD100F02F
:1007D80033FC801B1128F3D903209DE161694FF098
:1007E800B042536823F0FE4343EA01635360B9E71C
:1007F8004FF0B042136823F48073136000F01CFCC0
:1008080006464FF0B0431B6813F4806FAAD000F07F
:1008180013FC801B0228F4D903207DE14FF0B0427D
:10082800D2F8943023F00103C2F8943000F004FCAD
:1008380006464FF0B043D3F8943013F0020FAAD015
:1008480000F0FAFB801B1128F3D9032064E14FF074
:10085800B042D2F8943023F00103C2F8943000F08B
:10086800EBFB06464FF0B043D3F8943013F0020F79
:100878000AD000F0E1FB801B1128F3D903204BE1DB
:100888000800002004000020236813F0040F00F083
:10089800B180A94B1B6813F4807F10D1FFF7EEFCE1
:1008A80000F0CAFB0646A44B1B6813F4807F06D1F0
:1008B80000F0C2FB801B0228F5D903202CE1E36875
:1008C800002B61D0852B01D0052B07D14FF0B0420A
:1008D800D2F8903043F00403C2F8903000F0ACFB3B
:1008E80006464FF0B042D2F8903043F00103C2F808
:1008F80090304FF0B043D3F8903013F0020F08D186
:1009080000F09AFB801B41F288339842F1D903200A
:1009180002E1E368812B01D0852B1AD100F08CFB12
:1009280006464FF0B042D2F8903043F08003C2F848
:1009380090304FF0B043D3F8903013F4006F59D192
:1009480000F07AFB801B41F288339842F1D90320EA
:10095800E2E000F071FB06464FF0B042D2F890306A
:1009680023F08003C2F890304FF0B043D3F89030B2
:1009780013F4006F3ED000F05FFB801B41F2883318
:100988009842F1D90320C7E000F056FB06464FF025
:10099800B042D2F8903023F08003C2F890304FF084
:1009A800B043D3F8903013F4006F08D000F044FB44
:1009B800801B41F288339842F1D90320ACE000F063
:1009C8003BFB06464FF0B042D2F8903023F00103CB
:1009D800C2F890304FF0B043D3F8903013F0020FC4
:1009E80008D000F029FB801B41F288339842F1D9E6
:1009F800032091E0E36A002B00F08D800C2D62D07B
:100A0800022B1FD04FF0B0431A6822F080721A6090
:100A1800DA6822F00302DA60DA6822F0885222F4F7
:100A28008032DA6000F008FB04464FF0B0431B68E0
:100A380013F0007F73D000F0FFFA001B0A28F4D9E6
:100A4800032069E04FF0B042136823F0807313600D
:100A580000F0F2FA05464FF0B0431B6813F0007F30
:100A68002AD14FF0B042D36834491940236B606BE8
:100A78000343A06B43EA0023E06B0343206C03436A
:100A8800606C03430B43D360136843F080731360B7
:100A9800D36843F08053D36000F0CEFA04464FF099
:100AA800B0431B6813F0007F37D100F0C5FA001B74
:100AB8000A28F4D903202FE000F0BEFA401B0A28C8
:100AC800C9D9032028E0012B2BD04FF0B043DB68B5
:100AD80003F00301226B914225D103F07002616B90
:100AE8008A4222D103F4FE42A16BB2EB012F1ED140
:100AF80003F06043626C93421BD100200CE001209C
:100B08007047012008E0012006E0012004E00120F0
:100B180002E0012000E00020F8BD0020FCE70020F2
:100B2800FAE70120F8E70120F6E70120F4E70120C1
:100B3800F2E70120F0E700BF000400588C80C111E3
:100B4800002800F0048170B50C460546824B1B68EE
:100B580003F007038B4227D32B6813F0020F39D118
:100B68002B6813F0400F4DD12B6813F0040F65D19B
:100B78002B6813F0080F79D12B6813F0010F00F0E0
:100B8800C1806B68022B00F08B80032B00F09080F3
:100B9800002B40F095804FF0B042126812F0020F1F
:100BA80040F094800120D1E06B4A136823F00703DA
:100BB8000B43136000F040FA0646674B1B6803F0CE
:100BC8000703A342C8D000F037FA801B0228F4D9E3
:100BD8000320BBE0AB684FF0B0418A6822F0F00216
:100BE80013438B6000F028FA06464FF0B0439B6829
:100BF80013F4803FB4D100F01FFA801B0228F4D907
:100C08000320A3E069694FF0B042D2F8083123F01D
:100C18000F0343EA1113C2F8083100F00DFA064633
:100C28004FF0B043D3F8083113F4803F9CD100F063
:100C380003FA801B0228F3D9032087E0EB684FF002
:100C4800B0418A6822F4E06213438B6000F0F4F943
:100C580006464FF0B0439B6813F4003F88D100F07C
:100C6800EBF9801B0228F4D903206FE029694FF0C3
:100C7800B042936823F4605343EAC103936000F0E1
:100C8800DBF906464FF0B0439B6813F4802F7FF4DE
:100C980073AF00F0D1F9801B0228F3D9032055E087
:100CA8004FF0B042126812F4003F0FD101204DE01E
:100CB8004FF0B042126812F0007F07D1012045E0E2
:100CC8004FF0B042126812F4806F42D04FF0B0413A
:100CD8008A6822F0030213438B6000F0ADF90646E0
:100CE8004FF0B0439B6803F00C036A68B3EB820FC4
:100CF80008D000F0A1F9801B41F288339842EFD95F
:100D0800032023E0144B1B6803F00703A34215D903
:100D1800114A136823F007032343136000F08CF98A
:100D280005460D4B1B6803F00703A34206D000F0ED
:100D380083F9401B0228F4D9032007E0FFF7B4FB2E
:100D4800064B1860064B186800F02CF970BD01209E
:100D580070470120FAE700BF004000580800002053
:100D680004000020F0B5002391E086685F000325A9
:100D7800BD4026EA0506CD68BD4035438560466816
:100D880026EA04064D68C5F300149C4034434460C9
:100D9800C7685E000325B540EC4327EA05078D6860
:100DA800B5403D43C5604D68022D01D0122D13D1C9
:100DB800DF08083750F827E003F007054FEA850CED
:100DC8000F2505FA0CF52EEA050E0D6905FA0CF546
:100DD80045EA0E0540F82750056825404C6804F0A0
:100DE8000304B4402C4304604C6814F0805F4DD079
:100DF8009D08AE1C334C54F8267003F00304A6007B
:100E08000724B44027EA0407B0F1904F55D02E4C80
:100E1800A04254D004F58064A0424CD00724B440CA
:100E28003C430235274E46F82540284CD4F88050DC
:100E3800D44325EA02064F6817F4803F01D042EAFE
:100E48000506224DC5F88060D5F8845004EA0506E9
:100E58004F6817F4003F01D042EA05061B4DC5F85C
:100E680084602D6804EA05064F6817F4801F01D0D6
:100E780042EA0506154D2E606D682C404E6816F442
:100E8800001F01D042EA0504104A546001330A6881
:100E980032FA03F415D001249C402240F6D04D6864
:100EA8006E1E012E7FF661AF112D3FF45EAF122D3D
:100EB8007FF46EAF59E70224B1E70024AFE70124BD
:100EC800ADE7F0BD000001400004004800080058EC
:100ED8000AB18161704781627047436901EA030280
:100EE80021EA030141EA024181617047074AD36858
:100EF80023F4E0631B041B0C000200F4E0600343CE
:100F080043F0BF6343F40033D360704700ED00E063
:100F180030B4174BDB68C3F30223C3F10704042C76
:100F280028BF04241D1D062D18D9033B4FF0FF359B
:100F380005FA04F421EA0401994005FA03F322EAC8
:100F48000303194300280BDB0901C9B200F1604013
:100F580000F5614080F8001330BC70470023E5E7D6
:100F680000F00F000901C9B2024B1954F4E700BFA1
:100F780000ED00E014ED00E00138B0F1807F0AD206
:100F8800064B5860064AF02182F82310002098602A
:100F980007221A6070470120704700BF10E000E088
:100FA80000ED00E0114B1B780BB90120704710B51C
:100FB8000446FFF779FA0D4B1A784FF47A73B3FBAE
:100FC800F2F3B0FBF3F0FFF7D7FF68B90F2C01D9A4
:100FD80001200AE0002221464FF0FF30FFF798FF7A
:100FE800034B1C60002000E0012010BD0000002021
:100FF8000400002010B50320FFF778FFFFF754FA2C
:10100800064B18600F20FFF7CDFF10B101242046D2
:1010180010BD0446FFF730F9F9E700BF08000020CB
:10102800034B1B78034A11680B441360704700BFD9
:10103800000000202C000020014B1868704700BFFA
:101048002C00002038B50446FFF7F6FF0546B4F13A
:10105800FF3F02D0044B1B781C44FFF7EDFF401BF9
:10106800A042FAD338BD00BF00000020704700003E
:101078000D488546FFF7FAFF0C480D490D4A002335
:1010880002E0D458C4500433C4188C42F9D30A4A35
:101098000A4C002301E013600432A242FBD300F0A3
:1010A80011F8FFF7A3F8FEE70080002000000020F9
:1010B80010000020F011000810000020300000206F
:1010C800FEE7000070B50D4D0D4C641BA410002602
:1010D800A64209D10B4D0C4C00F020F8641BA4105B
:1010E8000026A64205D170BD55F8043B9847013645
:1010F800EEE755F8043B98470136F2E7E01100089F
:10110800E0110008E0110008E41100080244034659
:10111800934200D1704703F8011BF9E7F8B500BF07
:10112800F8BC08BC9E467047F8B500BFF8BC08BCC0
:081138009E4670470000000014
:10114000120024003000000006000C001000000017
:10115000000000000100000002000000010000008B
:101160000300000005000000010000000100000075
:10117000060000000A00000020000000020000003D
:101180000400000008000000100000004000000003
:10119000800000000001000000020000A0860100A5
:1011A000400D0300801A060000350C0040420F007D
:1011B00080841E0000093D0000127A000024F40023
:1011C00000366E010048E801006CDC0200000000FF
:1011D000000000000000000000000000000000000F
:0811E0005D01000800000000A1
:0811E8003901000800000000BD
:1011F000010000001000000000093D000000000098
:040000050800107966
:00000001FF
